:1000000019C033C032C031C030C02FC02EC07AC337
:100010005CC02BC02AC040C028C027C026C025C055
:1000200025C023C022C021C020C01FC01EC01DC0CB
:100030001CC01BC011241FBECFEFD4E0DEBFCDBF5C
:1000400011E0A0E0B1E0E0E4F4E102C005900D921F
:10005000A23BB107D9F713E0A2EBB1E001C01D92BA
:10006000AF30B107E1F75BD5E9C9CACF1F920F9254
:100070000FB60F9211248F9380E586BD8091B20157
:100080008F5F8093B201833008F015BC8F910F9081
:100090000FBE0F901F9018951F920F920FB60F92E0
:1000A00011248F939F9381E08093B4018091880005
:1000B0009091890090938500809384009F918F9107
:1000C0000F900FBE0F901F9018951F920F920FB6B2
:1000D0000F9211248F938091B4008A3411F480EE32
:1000E00001C08AE48093B4001092B2008F910F9007
:1000F0000FBE0F901F90189520E137E24CE251E0BF
:1001000005C0CA010197F1F7215030402115310592
:10011000C1F75A9880E197E2FA013197F1F7019718
:10012000D9F75A9A20E137E2ECCF80E29EE42CE244
:1001300031E0F9013197F1F70197D9F75A9880E545
:1001400093EC2CE231E0F9013197F1F70197D9F7FF
:100150005A9A80E593EC2CE231E0F9013197F1F7FE
:100160000197D9F780910703682F70E040E050E0D5
:100170002CE231E04BC05A9A80ED97E0F9013197BB
:10018000F1F70197D9F7CB01042E02C09595879519
:100190000A94E2F780FF21C05A9880ED97E0F901B8
:1001A0003197F1F70197D9F75A9A80ED97E0F90165
:1001B0003197F1F70197D9F75A9880ED97E0F90157
:1001C0003197F1F70197D9F75A9A80ED97E0F90145
:1001D0003197F1F70197D9F710C05A9880E197E26B
:1001E000F9013197F1F70197D9F75A9A80E197E22F
:1001F000F9013197F1F70197D9F780E197E2F90119
:100200003197F1F70197D9F74F5F5F4F48305105AC
:100210000CF4B1CF80E593ECF9013197F1F7019738
:10022000D9F740E050E0F2CF15BC80E586BD1092D2
:100230006E00A89A85E085BD089515BC80E586BD51
:10024000A89A81E080936E0085E085BD0895E1E87D
:10025000F0E0108210926F00B19AB09AB59A1092A5
:1002600085001092840080E8808380818260808392
:1002700008951092800088E08093810082E080934E
:100280006F0083E286BB8FEF9FEF90938B0080938C
:100290008A0010928500109284000895E1E8F0E051
:1002A0008081826080830895E0EBF0E082E28083C9
:1002B00080E48093B10084E0809370008AE48093AE
:1002C000B4008FEF8093B3001092B20082E180837C
:1002D000089581E48093B10008958091790065E2EA
:1002E00095D5982F8091A901891709F447C090935B
:1002F000A901992341F48BB1886F8BB988B18863C8
:1003000088B943980895913041F48BB1886F8BB9C7
:1003100088B1886388B944980895923041F48BB1CC
:10032000886F8BB988B1886388B9459808959330F0
:1003300041F48BB1886F8BB988B1886388B95C98B8
:100340000895943041F48BB1886F8BB988B188637C
:1003500088B95D980895953041F48BB1886F8BB959
:1003600088B1886388B95E980895963039F48BB166
:10037000886F8BB988B1886388B95F980895DF93D7
:10038000CF9300D00F92CDB7DEB7843029F4CE01E1
:10039000019660E070E01BC0853029F4CE01019623
:1003A00063E070E014C0833029F4CE01019666E06A
:1003B00070E00DC0863029F4CE01019669E070E04E
:1003C00006C0823041F5CE0101966CE070E043E05A
:1003D00050E036D78B8180930703398120E09A81E2
:1003E000E92FF0E0E22BF32BA7E0B2E0482F50E03A
:1003F000440F551F4A0F5B1F0BC024913196849107
:10040000322F20E090E0822B932B8D939D93319699
:10041000A417B50791F70F900F900F90CF91DF9130
:1004200008956F927F928F929F92BF92CF92DF92A8
:10043000EF92FF920F931F93DF93CF93CDB7DEB769
:10044000C354D0400FB6F894DEBF0FBECDBFB82E58
:1004500084E0B81629F4CE01019660E070E020C077
:1004600095E0B91629F4CE01019663E070E018C05A
:10047000A3E0BA1629F4CE01019666E070E010C040
:10048000B6E0BB1629F4CE01019669E070E008C021
:1004900082E0B81609F099C0CE0101966CE070E0D8
:1004A00043E050E0CDD6998180E02A8130E0822B74
:1004B000932B7C010027F7FC0095102F80910703F8
:1004C0008B831092080320E030E0CC24DD2454E03C
:1004D000852E912C8C0E9D1E45E0642E712C6C0E89
:1004E0007D1E42C02034310550F5E42FF0E0EE0FC0
:1004F000FF1FE95FFD4F90818181F401E20FF31F3F
:100500008083F301E20FF31F9083842F8F5F80932A
:1005100008032E5F3F4F851738F1F401E20FF31FF8
:100520008FEF03C081932F5F3F4F20343105D0F30D
:10053000C801B701AE014C5F5F4F62DC1CC0C8014F
:10054000B701A4015DDC0894C11CD11C94E0C9165C
:10055000D10488F480E490E0A0E0B0E0E80EF91E59
:100560000A1F1B1F20E030E0409108035091070351
:10057000451708F4B7CF94E0B91629F4CE010196D7
:1005800060E070E01FC0A5E0BA1629F4CE01019624
:1005900063E070E017C0B3E0BB1629F4CE0101960A
:1005A00066E070E00FC086E0B81629F4CE0101962F
:1005B00069E070E007C092E0B91639F4CE01019607
:1005C0006CE070E043E050E04BD6CD5BDF4F0FB600
:1005D000F894DEBF0FBECDBFCF91DF911F910F9179
:1005E000FF90EF90DF90CF90BF909F908F907F9083
:1005F0006F900895EF92FF920F931F93CF93DF9325
:100600001092070324DE00E411E0B59B35C0309161
:100610000703332369F4109285001092840010922E
:1006200008021092070210930703B59AFDDD1FC060
:100630008091860090E020918700E32FF0E0EE0F9C
:10064000FF1FE95FFD4FD22FC0E08C2B9D2B9183C4
:1006500080833F5F30930703B59AE6DD80910703FF
:1006600087FF05C015BCA89A1092810044C08091F4
:100670008100802780938100A89BC7CF15BCA89AD2
:1006800010928100209107032223A9F100D000D00D
:10069000EDB7FEB7319680E091E0ADB7BEB71296E8
:1006A0009C938E93119722831382E4D307E012E088
:1006B000C0E0D0E00F900F900F900F9066E2E62E12
:1006C00061E0F62E12C000D000D0EDB7FEB7F28286
:1006D000E182D8018D919D918D0194838383CAD34A
:1006E00021960F900F900F900F908091070390E04C
:1006F000C817D90744F3DF91CF911F910F91FF9055
:10070000EF9008951F920F920FB60F9211242F931E
:100710003F934F935F936F937F938F939F93AF9389
:10072000BF93EF93FF9300D08BE291E0EDB7FEB75C
:10073000928381839FD30F900F90FF91EF91BF9190
:10074000AF919F918F917F916F915F914F913F9169
:100750002F910F900FBE0F901F901895CF92DF92A0
:10076000EF92FF920F931F93CF93DF936B0107DEFE
:1007700000D000D0EDB7FEB7319686E491E0ADB77A
:10078000BEB712969C938E93119780910703828334
:10079000138270D307E012E0C0E0D0E00F900F901A
:1007A0000F900F90B6E2EB2EB1E0FB2E12C000D0FE
:1007B00000D0EDB7FEB7F282E182D8018D919D9114
:1007C0008D019483838356D321960F900F900F90C1
:1007D0000F908091070390E0C817D90744F3C0E059
:1007E000D0E001E011E446C01092B201009308038A
:1007F0008091090290910A02909389008093880069
:1008000038DD52DD1093B1008091810082608093C9
:10081000810013DD1DC08091B4018823C1F01092C6
:10082000B40190FD03C01093B10001C03DDDE09123
:100830000803EF5FE0930803F0E0EE0FFF1FE95FAE
:10084000FD4F808191819093890080938800000002
:1008500090910803809107039817E8F210928100A5
:1008600023DD03C088E790E017D38091B201833085
:10087000C8F32196CC15DD050CF4B6CFDF91CF91EE
:100880001F910F91FF90EF90DF90CF90089583E03C
:100890006AE070E063DF83E06AE070E05FDF83E0DE
:1008A0006AE070E05BDF83E06AE070E057DF8CE2D3
:1008B00091E02CE231E0F9013197F1F70197D9F796
:1008C00085E067E370E04ADF089583E06AE070E066
:1008D00045DF83E06AE070E041DF83E06AE070E0DA
:1008E0003DDF8CE291E02CE231E0F9013197F1F744
:1008F0000197D9F784E06CE370E030DF0895892B2D
:1009000009F056C0319942C000D082E691E0ADB7FF
:10091000BEB712969C938E931197ACD224EF31E020
:100920000F900F904CE251E0CA010197F1F721506E
:100930003040D1F7319994C080917A008F778093BD
:100940007A00319BFECF00D080E791E0EDB7FEB793
:10095000928381838FD28091A9010F900F90823072
:1009600020F06AE070E0FADE05C0882311F4ADDF04
:1009700001C08DDF80917A00806880937A00809139
:100980007A00806480937A0081E00895329968C08B
:1009900084EF91E02CE231E0F9013197F1F7019712
:1009A000D9F732995DC0329BFECF5CD082E00895CA
:1009B000319945C000D082E691E0ADB7BEB712963E
:1009C0009C938E93119756D224EF31E00F900F90A5
:1009D0004CE251E0CA010197F1F721503040D1F7C4
:1009E00031993EC0319BFECF00D080E791E0EDB75A
:1009F000FEB7928381833ED22091790000D000D04F
:100A0000EDB7FEB731968FE791E0ADB7BEB712965E
:100A10009C938E9311978091A901828313822483E2
:100A2000158228D28091A901EDB7FEB736960FB690
:100A3000F894FEBF0FBEEDBF823098F411C032991A
:100A40000FC084EF91E02CE231E0F9013197F1F72A
:100A50000197D9F7329904C0329BFECF80ED0895FB
:100A60008FEF0895EF92FF921F93CF93DF93CCE225
:100A7000D1E01FE7E12E11E0F12E5A9888EE93E0C5
:100A8000FE013197F1F70197D9F75A9A80EA9FE072
:100A9000FE013197F1F70197D9F71FDC80917900BA
:100AA00000D000D000D0EDB7FEB73196ADB7BEB7DD
:100AB0001296FC92EE9211979091A9019283138263
:100AC00084831582D7D18DB79EB706960FB6F8945A
:100AD0009EBF0FBE8DBF81E090E011DF182F803DDB
:100AE00011F45A9A16C08F3F41F280917A008F77A5
:100AF00080937A005A987EDD812F93DC5A9A8091F8
:100B00007A00806880937A0080917A008064809374
:100B10007A00DF91CF911F91FF90EF9008950F938E
:100B20001F93DF93CF93CDB7DEB76C970FB6F894D2
:100B3000DEBF0FBECDBFB8DB8CD04EE0DE0111961C
:100B4000FD01842F11928A95E9F783E08C8320E3DD
:100B500036E03A8729878AE496E09C878B87CE0126
:100B60000F96FC0111924A95E9F712E01A8B388F23
:100B70002F8B90930E0380930D03B0930A03A093E1
:100B80000903B0930C03A0930B032091610000D0E4
:100B900000D0EDB7FEB7319689E991E0ADB7BEB7A9
:100BA00012969C938E9311972283138263D1809126
:100BB0007A00866280937A0010927B0080917C009C
:100BC000806680937C0080917A00806880937A00B0
:100BD00088E387B988B1876088B98FEF8AB99BB1FC
:100BE0008BB995B185B914B9109208031092070317
:100BF000A89AB09AB59A80917A00806480937A001E
:100C000078940F900F900F900F900FE711E065DB35
:100C10008091790000D000D000D0EDB7FEB73196BA
:100C2000ADB7BEB712961C930E9311979091A90180
:100C300092831382848315821DD1EDB7FEB7369659
:100C40000FB6F894FEBF0FBEEDBF80E090E057DE18
:100C5000DECF8DE48093C40088E18093C1000895C5
:100C60001F93182F873041F460910D0370910E038C
:100C70008AEA91E0D7D00AC08A3011F48DE0F0DF23
:100C80008091C00085FFFCCF1093C60080E090E00B
:100C90001F910895EF92FF920F931F93CF93DF93CD
:100CA0007C018091B5019091B601892B09F092C029
:100CB00007EB11E08091C00087FFFCCF8091C0005E
:100CC00084FF03C02EEF3FEF99C08091C00083FDE9
:100CD00093C09091C6009D3011F09A3061F48AE083
:100CE000F8018083B701BCDF87EB91E09093B601F8
:100CF0008093B5016FC0993009F490E2892F80523A
:100D00008F3510F0903A68F0F2E006301F0711F4CA
:100D100087E004C0F80191938F01892FB701A0DF0C
:100D2000C9CF923121F1933138F4933009F464C082
:100D3000983009F0BFCF09C0973109F440C09F3700
:100D400021F0953109F0B6CF2AC0F1E0073B1F072B
:100D500009F008F4AFCF88E0B70182DF80E2B70185
:100D60007FDF88E0B7017CDF01501040A3CF8DE02A
:100D7000B70176DFC7EBD1E003C08991B70170DF1F
:100D8000C017D107D0F396CF88E0B70169DF80E2C2
:100D9000B70166DF88E0B70163DF0150104081E0F2
:100DA000073B180709F080F785CF88E0B70158DFC7
:100DB00080E2B70155DF88E0B70152DF8E01E1E044
:100DC000073B1E0709F008F475CFE8018A918032CD
:100DD00061F770CFE091B501F091B6018191F09388
:100DE000B601E093B5018A3021F41092B601109259
:100DF000B501282F30E002C02FEF3FEFC901DF918E
:100E0000CF911F910F91FF90EF900895991B79E07A
:100E100004C0991F961708F0961B881F7A95C9F78A
:100E200080950895EF92FF920F931F93CF93DF93D6
:100E30007C018B01DB0113968C9181FD03C0CFEF08
:100E4000DFEF13C0C0E0D0E00BC0D8011896ED91E1
:100E5000FC911997B8010995892B11F0CFEFDFEFBD
:100E6000F70181917F01882381F7CE01CDB7DEB7ED
:100E7000E6E0D5C2A0E0B0E0EFE3F7E0B8C2FE01E3
:100E800035966191719180910B0390910C03AF01A4
:100E900009D02096E2E0C7C260910B0370910C0369
:100EA0000CD20895ABE0B0E0E7E5F7E090C23C017A
:100EB0002B015A01FC0117821682838181FD03C038
:100EC0006FEF7FEFB9C19AE0892E1E010894211CB3
:100ED000311CF3012381F20123FD859123FF8191D0
:100EE0002F01882309F4A5C1853239F423FD8591AA
:100EF00023FF81912F01853221F490E0B301DDD1F0
:100F0000E8CF982FFF24EE249924FFE1FF15D0F0BD
:100F10009B3269F09C3228F4903259F0933291F46C
:100F20000EC09D3249F0903369F441E024C052E094
:100F3000F52A84E0F82A28C098E0F92A25C0E0E1E3
:100F4000FE2A22C0F7FC29C0892F80538A3070F412
:100F5000F6FE05C0989C902C1124980E15C0E89CB4
:100F6000E02C1124E80EF0E2FF2A0EC09E3229F494
:100F7000F6FC5FC140E4F42A07C09C3619F450E83F
:100F8000F52A02C0983649F4F20123FD959123FF1A
:100F900091912F01992309F0B8CF892F855483307F
:100FA00018F08052833038F444E050E0A40EB51EAF
:100FB0005FE359830FC0933631F0933779F093355F
:100FC00009F052C01FC0F5018081898342E050E0E2
:100FD000A40EB51E610101E010E011C0F501C08052
:100FE000D180F6FC03C06FEF7FEF02C0692D70E087
:100FF00042E050E0A40EB51EC60154D18C015FE75B
:10100000F52213C0F501C080D180F6FC03C06FEF5C
:101010007FEF02C0692D70E042E050E0A40EB51EE3
:10102000C60135D18C0150E8F52AF3FE06C018C080
:1010300080E290E0B30141D1EA948E2D90E0081750
:101040001907B0F30DC0F601F7FC8591F7FE819109
:101050006F0190E0B30131D1E110EA9401501040EA
:101060000115110581F7E2C0943611F0993661F54A
:10107000F7FE08C0F501208131814281538184E06F
:1010800090E00AC0F501808191819C01442737FDE1
:101090004095542F82E090E0A80EB91E9FE6F922F9
:1010A00057FF09C050954095309521953F4F4F4FC0
:1010B0005F4FE0E8FE2ACA01B901A1012AE030E051
:1010C00028D1D82ED2183FC0953729F41F2D1F7E66
:1010D0002AE030E01DC01F2D197F9F3661F0903748
:1010E00020F4983509F0A5C00FC0903739F0983733
:1010F00009F09FC004C028E030E00AC0106114FD70
:10110000146020E130E004C014FD166020E132E0FC
:1011100017FF08C0F501608171818281938144E0ED
:1011200050E008C0F50180819181BC0180E090E031
:1011300042E050E0A40EB51EA101EBD0D82ED2188B
:101140008FE7F82EF122F6FE0BC05EEFF522D914E0
:1011500038F4F4FE07C0F2FC05C08FEEF82202C09E
:101160001D2D01C0192DF4FE0DC0FE01ED0DF11D68
:101170008081803319F499EEF92208C01F5FF2FED6
:1011800005C003C08F2D867809F01F5F0F2DF3FC7B
:1011900013C0F0FE0EC01E1510F09D2C0AC09D2C31
:1011A0009E0C911A1E2D05C080E290E0B30185D0FF
:1011B0001F5F1E15C8F304C01E1510F4E11A01C00C
:1011C000EE2404FF0EC080E390E0B30176D002FF6E
:1011D0001BC001FD03C088E790E00EC088E590E0E9
:1011E0000BC0802F867881F001FF02C08BE201C026
:1011F00080E2F7FC8DE290E0B3015FD005C080E3B0
:1012000090E0B3015AD09A94D914C8F3DA94F1015A
:10121000ED0DF11D808190E0B3014FD0DD20B1F7DD
:1012200005C080E290E0B30148D0EA94EE20C9F70F
:1012300050CEF30166817781CB012B96E2E1E3C0CA
:10124000DC01CB01FC01F999FECF06C0F2BDE1BD86
:10125000F89A319600B40D9241505040B8F7089575
:10126000DC01CB0102C02D9105D041505040D8F790
:101270000895262FF999FECF1FBA92BD81BD20BDDA
:101280000FB6F894FA9AF99A0FBE01960895FC01E8
:101290000590615070400110D8F7809590958E0FA1
:1012A0009F1F0895FC016150704001900110D8F714
:1012B000809590958E0F9F1F08950F931F93CF9346
:1012C000DF938C01EB018B8181FF1BC082FF0DC07E
:1012D0002E813F818C819D812817390764F4E88134
:1012E000F9810193F983E88306C0E885F985802FA9
:1012F0000995892B31F48E819F8101969F838E837E
:1013000002C00FEF1FEFC801DF91CF911F910F9126
:101310000895FA01AA27283051F1203181F1E8948B
:101320006F936E7F6E5F7F4F8F4F9F4FAF4FB1E0D8
:101330003ED0B4E03CD0670F781F891F9A1FA11DD3
:10134000680F791F8A1F911DA11D6A0F711D811DD4
:10135000911DA11D20D009F468943F912AE0269F99
:1013600011243019305D3193DEF6CF010895462FF8
:101370004770405D4193B3E00FD0C9F7F6CF462FD9
:101380004F70405D4A3318F0495D31FD4052419342
:1013900002D0A9F7EACFB4E0A695979587957795FF
:1013A0006795BA95C9F700976105710508959B0186
:1013B000AC010A2E06945795479537952795BA950F
:1013C000C9F7620F731F841F951FA01D08952F92E8
:1013D0003F924F925F926F927F928F929F92AF92C5
:1013E000BF92CF92DF92EF92FF920F931F93CF9312
:1013F000DF93CDB7DEB7CA1BDB0B0FB6F894DEBFA9
:101400000FBECDBF09942A88398848885F846E84CE
:101410007D848C849B84AA84B984C884DF80EE8018
:10142000FD800C811B81AA81B981CE0FD11D0FB621
:10143000F894DEBF0FBECDBFED010895F894FFCF45
:1014400054696D6572206F766572666C6F772E20B9
:10145000205369676E616C20656E6465642E202080
:1014600025643A0D0A0025752C200041484848485B
:1014700048484848484848484821212121212121FD
:101480002121212121004952205369676E616C207E
:101490005265616420646174612E202025643A0DD8
:1014A0000A007965702069276D20696E2E2E2E0046
:1014B0007370656369616C70726573736564004D08
:1014C0006F64653A2025752C204144432076616C79
:1014D00075653A2025750D0A00434C4B5052207615
:1014E000616C75653A20256400FF2A72696E672A6F
:0214F0000A00F0
:101E00000F931F93CF93DF93DA010FB7F894F999EB
:101E1000FECFAB0183E0FB0180935700E89507B646
:101E200000FCFDCFFA0111E0BA01605C7F4F8C919C
:101E300011963C91119720E0E901C80FD11D12962F
:101E40000E0110935700E89511243296E617F70714
:101E500071F785E0FA0180935700E89507B600FC1A
:101E6000FDCF81E180935700E8950FBFDF91CF91BF
:061E70001F910F9108957F
:00000001FF
